{
  "_format": "hh-sol-artifact-1",
  "contractName": "Decentral_Amazon",
  "sourceName": "contracts/Dappazon.sol",
  "abi": [
    {
      "inputs": [],
      "stateMutability": "nonpayable",
      "type": "constructor"
    },
    {
      "anonymous": false,
      "inputs": [
        {
          "indexed": false,
          "internalType": "address",
          "name": "buyer",
          "type": "address"
        },
        {
          "indexed": false,
          "internalType": "uint256",
          "name": "orderId",
          "type": "uint256"
        },
        {
          "indexed": false,
          "internalType": "uint256",
          "name": "itemId",
          "type": "uint256"
        }
      ],
      "name": "Buy",
      "type": "event"
    },
    {
      "anonymous": false,
      "inputs": [
        {
          "indexed": false,
          "internalType": "string",
          "name": "name",
          "type": "string"
        },
        {
          "indexed": false,
          "internalType": "uint256",
          "name": "cost",
          "type": "uint256"
        },
        {
          "indexed": false,
          "internalType": "uint256",
          "name": "quantity",
          "type": "uint256"
        }
      ],
      "name": "List",
      "type": "event"
    },
    {
      "inputs": [
        {
          "internalType": "uint256",
          "name": "_id",
          "type": "uint256"
        }
      ],
      "name": "buy",
      "outputs": [],
      "stateMutability": "payable",
      "type": "function"
    },
    {
      "inputs": [
        {
          "internalType": "uint256",
          "name": "",
          "type": "uint256"
        }
      ],
      "name": "items",
      "outputs": [
        {
          "internalType": "uint256",
          "name": "id",
          "type": "uint256"
        },
        {
          "internalType": "string",
          "name": "name",
          "type": "string"
        },
        {
          "internalType": "string",
          "name": "category",
          "type": "string"
        },
        {
          "internalType": "string",
          "name": "image",
          "type": "string"
        },
        {
          "internalType": "uint256",
          "name": "cost",
          "type": "uint256"
        },
        {
          "internalType": "uint256",
          "name": "rating",
          "type": "uint256"
        },
        {
          "internalType": "uint256",
          "name": "stock",
          "type": "uint256"
        }
      ],
      "stateMutability": "view",
      "type": "function"
    },
    {
      "inputs": [
        {
          "internalType": "uint256",
          "name": "_id",
          "type": "uint256"
        },
        {
          "internalType": "string",
          "name": "_name",
          "type": "string"
        },
        {
          "internalType": "string",
          "name": "_category",
          "type": "string"
        },
        {
          "internalType": "string",
          "name": "_image",
          "type": "string"
        },
        {
          "internalType": "uint256",
          "name": "_cost",
          "type": "uint256"
        },
        {
          "internalType": "uint256",
          "name": "_rating",
          "type": "uint256"
        },
        {
          "internalType": "uint256",
          "name": "_stock",
          "type": "uint256"
        }
      ],
      "name": "list",
      "outputs": [],
      "stateMutability": "nonpayable",
      "type": "function"
    },
    {
      "inputs": [
        {
          "internalType": "address",
          "name": "",
          "type": "address"
        }
      ],
      "name": "orderCount",
      "outputs": [
        {
          "internalType": "uint256",
          "name": "",
          "type": "uint256"
        }
      ],
      "stateMutability": "view",
      "type": "function"
    },
    {
      "inputs": [
        {
          "internalType": "address",
          "name": "",
          "type": "address"
        },
        {
          "internalType": "uint256",
          "name": "",
          "type": "uint256"
        }
      ],
      "name": "orders",
      "outputs": [
        {
          "internalType": "uint256",
          "name": "time",
          "type": "uint256"
        },
        {
          "components": [
            {
              "internalType": "uint256",
              "name": "id",
              "type": "uint256"
            },
            {
              "internalType": "string",
              "name": "name",
              "type": "string"
            },
            {
              "internalType": "string",
              "name": "category",
              "type": "string"
            },
            {
              "internalType": "string",
              "name": "image",
              "type": "string"
            },
            {
              "internalType": "uint256",
              "name": "cost",
              "type": "uint256"
            },
            {
              "internalType": "uint256",
              "name": "rating",
              "type": "uint256"
            },
            {
              "internalType": "uint256",
              "name": "stock",
              "type": "uint256"
            }
          ],
          "internalType": "struct Decentral_Amazon.Item",
          "name": "item",
          "type": "tuple"
        }
      ],
      "stateMutability": "view",
      "type": "function"
    },
    {
      "inputs": [],
      "name": "owner",
      "outputs": [
        {
          "internalType": "address",
          "name": "",
          "type": "address"
        }
      ],
      "stateMutability": "view",
      "type": "function"
    },
    {
      "inputs": [],
      "name": "withdraw",
      "outputs": [],
      "stateMutability": "nonpayable",
      "type": "function"
    }
  ],
  "bytecode": "0x608060405234801561001057600080fd5b50336000806101000a81548173ffffffffffffffffffffffffffffffffffffffff021916908373ffffffffffffffffffffffffffffffffffffffff160217905550611955806100606000396000f3fe6080604052600436106100705760003560e01c80638da5cb5b1161004e5780638da5cb5b14610107578063bfb231d214610132578063d96a094a14610175578063eea8a7e81461019157610070565b80633ccfd60b14610075578063713d856b1461008c578063793b8c6d146100c9575b600080fd5b34801561008157600080fd5b5061008a6101ba565b005b34801561009857600080fd5b506100b360048036038101906100ae9190610ddb565b6102e2565b6040516100c09190610e21565b60405180910390f35b3480156100d557600080fd5b506100f060048036038101906100eb9190610e68565b6102fa565b6040516100fe929190610ff1565b60405180910390f35b34801561011357600080fd5b5061011c610513565b6040516101299190611030565b60405180910390f35b34801561013e57600080fd5b506101596004803603810190610154919061104b565b610537565b60405161016c97969594939291906110c2565b60405180910390f35b61018f600480360381019061018a919061104b565b610711565b005b34801561019d57600080fd5b506101b860048036038101906101b3919061127b565b610bde565b005b60008054906101000a900473ffffffffffffffffffffffffffffffffffffffff1673ffffffffffffffffffffffffffffffffffffffff163373ffffffffffffffffffffffffffffffffffffffff1614610248576040517f08c379a000000000000000000000000000000000000000000000000000000000815260040161023f906113e3565b60405180910390fd5b60008060009054906101000a900473ffffffffffffffffffffffffffffffffffffffff1673ffffffffffffffffffffffffffffffffffffffff164760405161028f90611434565b60006040518083038185875af1925050503d80600081146102cc576040519150601f19603f3d011682016040523d82523d6000602084013e6102d1565b606091505b50509050806102df57600080fd5b50565b60026020528060005260406000206000915090505481565b600360205281600052604060002060205280600052604060002060009150915050806000015490806001016040518060e00160405290816000820154815260200160018201805461034a90611478565b80601f016020809104026020016040519081016040528092919081815260200182805461037690611478565b80156103c35780601f10610398576101008083540402835291602001916103c3565b820191906000526020600020905b8154815290600101906020018083116103a657829003601f168201915b505050505081526020016002820180546103dc90611478565b80601f016020809104026020016040519081016040528092919081815260200182805461040890611478565b80156104555780601f1061042a57610100808354040283529160200191610455565b820191906000526020600020905b81548152906001019060200180831161043857829003601f168201915b5050505050815260200160038201805461046e90611478565b80601f016020809104026020016040519081016040528092919081815260200182805461049a90611478565b80156104e75780601f106104bc576101008083540402835291602001916104e7565b820191906000526020600020905b8154815290600101906020018083116104ca57829003601f168201915b505050505081526020016004820154815260200160058201548152602001600682015481525050905082565b60008054906101000a900473ffffffffffffffffffffffffffffffffffffffff1681565b600160205280600052604060002060009150905080600001549080600101805461056090611478565b80601f016020809104026020016040519081016040528092919081815260200182805461058c90611478565b80156105d95780601f106105ae576101008083540402835291602001916105d9565b820191906000526020600020905b8154815290600101906020018083116105bc57829003601f168201915b5050505050908060020180546105ee90611478565b80601f016020809104026020016040519081016040528092919081815260200182805461061a90611478565b80156106675780601f1061063c57610100808354040283529160200191610667565b820191906000526020600020905b81548152906001019060200180831161064a57829003601f168201915b50505050509080600301805461067c90611478565b80601f01602080910402602001604051908101604052809291908181526020018280546106a890611478565b80156106f55780601f106106ca576101008083540402835291602001916106f5565b820191906000526020600020905b8154815290600101906020018083116106d857829003601f168201915b5050505050908060040154908060050154908060060154905087565b6000600160008381526020019081526020016000206040518060e00160405290816000820154815260200160018201805461074b90611478565b80601f016020809104026020016040519081016040528092919081815260200182805461077790611478565b80156107c45780601f10610799576101008083540402835291602001916107c4565b820191906000526020600020905b8154815290600101906020018083116107a757829003601f168201915b505050505081526020016002820180546107dd90611478565b80601f016020809104026020016040519081016040528092919081815260200182805461080990611478565b80156108565780601f1061082b57610100808354040283529160200191610856565b820191906000526020600020905b81548152906001019060200180831161083957829003601f168201915b5050505050815260200160038201805461086f90611478565b80601f016020809104026020016040519081016040528092919081815260200182805461089b90611478565b80156108e85780601f106108bd576101008083540402835291602001916108e8565b820191906000526020600020905b8154815290600101906020018083116108cb57829003601f168201915b50505050508152602001600482015481526020016005820154815260200160068201548152505090508060800151341015610958576040517f08c379a000000000000000000000000000000000000000000000000000000000815260040161094f906114f5565b60405180910390fd5b60008160c001511161099f576040517f08c379a000000000000000000000000000000000000000000000000000000000815260040161099690611561565b60405180910390fd5b60006040518060400160405280428152602001838152509050600260003373ffffffffffffffffffffffffffffffffffffffff1673ffffffffffffffffffffffffffffffffffffffff1681526020019081526020016000206000815480929190610a08906115b0565b919050555080600360003373ffffffffffffffffffffffffffffffffffffffff1673ffffffffffffffffffffffffffffffffffffffff1681526020019081526020016000206000600260003373ffffffffffffffffffffffffffffffffffffffff1673ffffffffffffffffffffffffffffffffffffffff16815260200190815260200160002054815260200190815260200160002060008201518160000155602082015181600101600082015181600001556020820151816001019081610acf91906117a4565b506040820151816002019081610ae591906117a4565b506060820151816003019081610afb91906117a4565b506080820151816004015560a0820151816005015560c082015181600601555050905050600180600085815260200190815260200160002060060154610b419190611876565b60016000858152602001908152602001600020600601819055507f1cbc5ab135991bd2b6a4b034a04aa2aa086dac1371cb9b16b8b5e2ed6b036bed33600260003373ffffffffffffffffffffffffffffffffffffffff1673ffffffffffffffffffffffffffffffffffffffff168152602001908152602001600020548460000151604051610bd1939291906118aa565b60405180910390a1505050565b60008054906101000a900473ffffffffffffffffffffffffffffffffffffffff1673ffffffffffffffffffffffffffffffffffffffff163373ffffffffffffffffffffffffffffffffffffffff1614610c6c576040517f08c379a0000000000000000000000000000000000000000000000000000000008152600401610c63906113e3565b60405180910390fd5b60006040518060e0016040528089815260200188815260200187815260200186815260200185815260200184815260200183815250905080600160008a8152602001908152602001600020600082015181600001556020820151816001019081610cd691906117a4565b506040820151816002019081610cec91906117a4565b506060820151816003019081610d0291906117a4565b506080820151816004015560a0820151816005015560c082015181600601559050507ffdbe2a012c10ec01592653978eaa09b5ca60b143a0e617505b2ebcbd911ec5b8878584604051610d57939291906118e1565b60405180910390a15050505050505050565b6000604051905090565b600080fd5b600080fd5b600073ffffffffffffffffffffffffffffffffffffffff82169050919050565b6000610da882610d7d565b9050919050565b610db881610d9d565b8114610dc357600080fd5b50565b600081359050610dd581610daf565b92915050565b600060208284031215610df157610df0610d73565b5b6000610dff84828501610dc6565b91505092915050565b6000819050919050565b610e1b81610e08565b82525050565b6000602082019050610e366000830184610e12565b92915050565b610e4581610e08565b8114610e5057600080fd5b50565b600081359050610e6281610e3c565b92915050565b60008060408385031215610e7f57610e7e610d73565b5b6000610e8d85828601610dc6565b9250506020610e9e85828601610e53565b9150509250929050565b610eb181610e08565b82525050565b600081519050919050565b600082825260208201905092915050565b60005b83811015610ef1578082015181840152602081019050610ed6565b60008484015250505050565b6000601f19601f8301169050919050565b6000610f1982610eb7565b610f238185610ec2565b9350610f33818560208601610ed3565b610f3c81610efd565b840191505092915050565b600060e083016000830151610f5f6000860182610ea8565b5060208301518482036020860152610f778282610f0e565b91505060408301518482036040860152610f918282610f0e565b91505060608301518482036060860152610fab8282610f0e565b9150506080830151610fc06080860182610ea8565b5060a0830151610fd360a0860182610ea8565b5060c0830151610fe660c0860182610ea8565b508091505092915050565b60006040820190506110066000830185610e12565b81810360208301526110188184610f47565b90509392505050565b61102a81610d9d565b82525050565b60006020820190506110456000830184611021565b92915050565b60006020828403121561106157611060610d73565b5b600061106f84828501610e53565b91505092915050565b600082825260208201905092915050565b600061109482610eb7565b61109e8185611078565b93506110ae818560208601610ed3565b6110b781610efd565b840191505092915050565b600060e0820190506110d7600083018a610e12565b81810360208301526110e98189611089565b905081810360408301526110fd8188611089565b905081810360608301526111118187611089565b90506111206080830186610e12565b61112d60a0830185610e12565b61113a60c0830184610e12565b98975050505050505050565b600080fd5b600080fd5b7f4e487b7100000000000000000000000000000000000000000000000000000000600052604160045260246000fd5b61118882610efd565b810181811067ffffffffffffffff821117156111a7576111a6611150565b5b80604052505050565b60006111ba610d69565b90506111c6828261117f565b919050565b600067ffffffffffffffff8211156111e6576111e5611150565b5b6111ef82610efd565b9050602081019050919050565b82818337600083830152505050565b600061121e611219846111cb565b6111b0565b90508281526020810184848401111561123a5761123961114b565b5b6112458482856111fc565b509392505050565b600082601f83011261126257611261611146565b5b813561127284826020860161120b565b91505092915050565b600080600080600080600060e0888a03121561129a57611299610d73565b5b60006112a88a828b01610e53565b975050602088013567ffffffffffffffff8111156112c9576112c8610d78565b5b6112d58a828b0161124d565b965050604088013567ffffffffffffffff8111156112f6576112f5610d78565b5b6113028a828b0161124d565b955050606088013567ffffffffffffffff81111561132357611322610d78565b5b61132f8a828b0161124d565b94505060806113408a828b01610e53565b93505060a06113518a828b01610e53565b92505060c06113628a828b01610e53565b91505092959891949750929550565b7f4f6e6c79206f776e65722063616e2063616c6c20746869732066756e6374696f60008201527f6e00000000000000000000000000000000000000000000000000000000000000602082015250565b60006113cd602183611078565b91506113d882611371565b604082019050919050565b600060208201905081810360008301526113fc816113c0565b9050919050565b600081905092915050565b50565b600061141e600083611403565b91506114298261140e565b600082019050919050565b600061143f82611411565b9150819050919050565b7f4e487b7100000000000000000000000000000000000000000000000000000000600052602260045260246000fd5b6000600282049050600182168061149057607f821691505b6020821081036114a3576114a2611449565b5b50919050565b7f4e6f7420656e6f7567682065746865722073656e740000000000000000000000600082015250565b60006114df601583611078565b91506114ea826114a9565b602082019050919050565b6000602082019050818103600083015261150e816114d2565b9050919050565b7f4e6f7420656e6f756768206974656d2073746f636b0000000000000000000000600082015250565b600061154b601583611078565b915061155682611515565b602082019050919050565b6000602082019050818103600083015261157a8161153e565b9050919050565b7f4e487b7100000000000000000000000000000000000000000000000000000000600052601160045260246000fd5b60006115bb82610e08565b91507fffffffffffffffffffffffffffffffffffffffffffffffffffffffffffffffff82036115ed576115ec611581565b5b600182019050919050565b60008190508160005260206000209050919050565b60006020601f8301049050919050565b600082821b905092915050565b60006008830261165a7fffffffffffffffffffffffffffffffffffffffffffffffffffffffffffffffff8261161d565b611664868361161d565b95508019841693508086168417925050509392505050565b6000819050919050565b60006116a161169c61169784610e08565b61167c565b610e08565b9050919050565b6000819050919050565b6116bb83611686565b6116cf6116c7826116a8565b84845461162a565b825550505050565b600090565b6116e46116d7565b6116ef8184846116b2565b505050565b5b81811015611713576117086000826116dc565b6001810190506116f5565b5050565b601f82111561175857611729816115f8565b6117328461160d565b81016020851015611741578190505b61175561174d8561160d565b8301826116f4565b50505b505050565b600082821c905092915050565b600061177b6000198460080261175d565b1980831691505092915050565b6000611794838361176a565b9150826002028217905092915050565b6117ad82610eb7565b67ffffffffffffffff8111156117c6576117c5611150565b5b6117d08254611478565b6117db828285611717565b600060209050601f83116001811461180e57600084156117fc578287015190505b6118068582611788565b86555061186e565b601f19841661181c866115f8565b60005b828110156118445784890151825560018201915060208501945060208101905061181f565b86831015611861578489015161185d601f89168261176a565b8355505b6001600288020188555050505b505050505050565b600061188182610e08565b915061188c83610e08565b92508282039050818111156118a4576118a3611581565b5b92915050565b60006060820190506118bf6000830186611021565b6118cc6020830185610e12565b6118d96040830184610e12565b949350505050565b600060608201905081810360008301526118fb8186611089565b905061190a6020830185610e12565b6119176040830184610e12565b94935050505056fea2646970667358221220d6fbf92d65c9b0fd8d0deb0ab748e8fc590fe47cbeda6034b66e0003bde8738d64736f6c63430008110033",
  "linkReferences": {},
  "deployedLinkReferences": {}
}